:100BE4000A12C0F9A4B0999282F88090010E000212
:070BF4000B002802100000B5
:030013000209845B
:10098400C0E0C0F0C083C082C0D075D000C000C039
:1009940001C002C003C004C005C006C007050CE5C1
:1009A4000C7002050BAE0BFF7C007D64120B4F8FA5
:1009B4000DAE0BAF0C7C007D64120B4F7E007F0AE2
:1009C400CFCDCFCECCCE120B4F8F09AE0BAF0C7C5C
:1009D400007D0A120B4F8D0FD2A17412250DF8E67B
:1009E400F5807FFA7E00120BC4C2A1D2A274122534
:1009F40009F8E6F5807FFA7E00120BC4C2A2D2A3E6
:100A04007412250FF8E6F5807FFA7E00120BC4C23B
:100A1400A37F647E00120BA4E50C6496450B70055D
:100A2400F50B750C01D007D006D005D004D003D047
:100A340002D001D000D0D0D082D083D0F0D0E03228
:03001B00020AD006
:100AD000C0E0C0F0C083C082C0D075D000C000C0EC
:100AE00001C002C003C004C005C006C0070511E56F
:100AF0001170020510648C4510702A120BFC8F0ACD
:100B0000E50A75F06484F50DE50A75F06484E5F096
:100B100075F00A84F509E50A75F00A8485F00F7509
:100B20001000751100C28FC28E758910758B00750B
:100B30008D00D28ED007D006D005D004D003D002CD
:0F0B4000D001D000D0D0D082D083D0F0D0E0321E
:10080000C2A4D2AAD2AFD28A758910E4F58BF58D35
:10081000D28ED2ABD2AF120BFC8F0AE50A75F06410
:1008200084F50DE50A75F06484E5F075F00A84F549
:1008300009E50A75F00A8485F00FC3E50A950CE412
:10084000950B4045D2A4D2A17412250DF8E6F5808F
:100850007FFA7E00120BC4C2A1D2A274122509F83D
:10086000E6F5807FFA7E00120BC4C2A2D2A37412F6
:10087000250FF8E6F5807FFA7E00120BC4C2A37F35
:10088000647E00120BA4750E01C3E50A950CE49575
:100890000B503FE50E703BC2A4D2A17412250DF897
:1008A000E6F5807FFA7E00120BC4C2A1D2A27412B8
:1008B0002509F8E6F5807FFA7E00120BC4C2A2D2A9
:1008C000A37412250FF8E6F5807FFA7E00120BC4A0
:1008D000C2A3C3E50A950CE4950B504BE50E6401E9
:1008E000704530A042D2A4D2A17412250DF8E6F5CD
:1008F000807FFA7E00120BC4C2A1D2A27412250915
:10090000F8E6F5807FFA7E00120BC4C2A2D2A3746F
:1009100012250FF8E6F5807FFA7E00120BC4C2A301
:100920007F647E00120BA4C3E50A950CE4950B408E
:100930000302083AE50E6401600302083A30A0039E
:1009400002083AC2A4D2A17412250DF8E6F5807F00
:10095000FA7E00120BC4C2A1D2A274122509F8E6D5
:10096000F5807FFA7E00120BC4C2A2D2A3741225B6
:100970000FF8E6F5807FFA7E00120BC4C2A3E4F5FF
:040980000E02083A21
:100BFC00C2A6D2A620A7FDC2A57FFA7E00120BC406
:060C0C00AF90D2A5D2A7B3
:010C120022BF
:100BA400E4FDFCC3ED9FEC9E5015E4FBFA0BBB0087
:0F0BB400010AEB647D4A70F50DBD00010C80E471
:010BC300220F
:100BC400E4FDFCC3ED9FEC9E5015E4FBFA0BBB0067
:0F0BD400010AEB64024A70F50DBD00010C80E4CC
:010BE30022EF
:03000000020A44AD
:0C0A4400787FE4F6D8FD75811B020A8B58
:100B4F00BC000BBE0029EF8DF084FFADF022E4CC8A
:100B5F00F875F008EF2FFFEE33FEEC33FCEE9DEC53
:100B6F00984005FCEE9DFE0FD5F0E9E4CEFD22ED99
:100B7F00F8F5F0EE8420D21CFEADF075F008EF2FE3
:100B8F00FFED33FD4007985006D5F0F222C398FDD4
:050B9F000FD5F0EA2271
:100A5000020800E493A3F8E493A34003F68001F2B4
:100A600008DFF48029E493A3F85407240CC8C333A7
:100A7000C4540F4420C8834004F456800146F6DF76
:100A8000E4800B0102040810204080900BE4E47E17
:100A9000019360BCA3FF543F30E509541FFEE4936B
:100AA000A360010ECF54C025E060A840B8E493A332
:100AB000FAE493A3F8E493A3C8C582C8CAC583CA5D
:100AC000F0A3C8C582C8CAC583CADFE9DEE780BE15
:010BFB0000F9
:00000001FF
