:03000000020023D8
:040013000200EA32CB
:04001B0002006B3242
:1000230075A88CD28A758910758D00758B00D28E58
:1000330075FE8C75FD647590FF1200A5E5FCB5FD9A
:1000430002800F500DBE001AC2A47E00120080026F
:10005300003FD2A47E011200801200DD1200D802FC
:10006300003F20A0ED02004BD5FE0C75FE8C120064
:10007300C81200A502001E1200C802001E9000FF55
:10008300D2A1EB93F5801200D8C2A1D2A2EC93F5D2
:10009300801200D8C2A2D2A3ED93F5801200D8C279
:1000A300A322C2A6D2A620A7FDC2A51200D8E5901E
:1000B300F5FCD2A5D2A775F06484FBE5F075F00AD0
:1000C30084FCADF022C28FC28E758910758D0075C8
:1000D3008B00D28E227FFADFFE2275F93C75F8FA87
:1000E300D5F8FDD5F9F72205FDE5FD1200B912009B
:1000F30080AFFDBF960375FD01020016C0F9A4B0E1
:06010300999282F8809041
:00000001FF
